:040000008B010F2B36
:08000800F000030EF10083017A
:100010000408F2008A018C102E0803197828AF0B0F
:100020002F28820700005028612861286128612854
:10003000612861285B285E287128F41EAD11AD1976
:100040002E28320884002A080310741B2A0C800012
:10005000B20AC8303206B6300319B200AE01AC0B9A
:10006000AE287308AC002B0882078E28A528A72885
:10007000832880288828882888288828882888280D
:100080000610AD12290E2906C000C00DC00DC00615
:1000900020304019AD06C019AD06741EAD06AD285E
:1000A000061A2E28F801AA01AD11741EAD157308A9
:1000B000AF00AE0A2F28741F6128AE0AF41A612817
:1000C000AE0A061A69280310AA0C7308AF00AE0A1C
:1000D0002F280314AA0C0830AD067308AF00AE0A2F
:1000E0002F280830061AAD067308AF00AE0A2F2875
:1000F000061A2F280310730CAF00AF03AE0A2F2887
:10010000741F8828AB03F41A8828AB03F41FAB03D1
:10011000A90C03180614031C0610AD280614300899
:1001200031060319AE28741D97280619AE28F80168
:100130000B30AB00300884000008A900B00AB630CC
:100140003006A0300319B000AE280614AD28AD1A51
:100150000614AD1E0610F41FAB03AB0339080319D8
:100160003629BA0BD12882070000FB281129112952
:1001700011291129112911290B290E292729F61EC8
:10018000B811B819D0283D08840035080310761B33
:10019000350C8000BD0AF0303D06DE300319BD008D
:1001A000B901B70B83297508B700360882075E29A5
:1001B0007A297C294D294A29522952295229522922
:1001C000522952290512B812340E3406C000C00D4F
:1001D000C00DC00620304019B806C019B806761EFA
:1001E000B806822982078034403420341034083421
:1001F000043402340134F6190829861AD028F9018A
:10020000B501B811761EB8157508BA00B90AD1281B
:10021000061BD028FF28761F1129B90AF61A1129C2
:10022000B90A08300310F6191E29861A0314031898
:10023000B806B50C7508BA00B90AD128061B031414
:100240000318B806B50C7508BA00B90AD1280830E9
:10025000F6193029861AB8067508BA00B90AD128E5
:10026000061BB8067508BA00B90AD128F619422942
:100270008718D128861AD1280310750CBA00BA0342
:10028000B90AD128061BD1280310750CBA00BA038D
:10029000B90AD128761F5229B603F61A5229B60395
:1002A000F61FB603B40C03180516031C05128229A9
:1002B000F6185C2987108329F610832905163B0858
:1002C0003C0603195829F6196A29B908031D832920
:1002D000861E83298714F901F6140B30B6003B08FB
:1002E00084000008B400BB0ADE303B06C8300319A6
:1002F000BB00832905168229B81A0516B81E0512F7
:10030000F61FB603B603FA0B9729771D89298814BF
:100310008B29F70A8810781D8F2908159129F80A6A
:100320000811791D952988159729F90A88116E1CDD
:10033000252AFD080319082AFD1BF5297D1FCE2952
:100340007D1EB32986138316861383017D12000058
:10035000000000000000000000007E1C082A831638
:1003600086178301082AFD1DB729FD11082A7D1D66
:10037000BB297D11082AFD1CBF29FD10082A831600
:1003800086178301FF030319C929FE0C5E30FD00A7
:10039000082A8617831686138301072A7D1EDF2904
:1003A00086138316861383010000000000000000FE
:1003B000000000008316861783017D12082AFD1DA8
:1003C000E729FD110310FE0C861BFE17082A7D1D70
:1003D000EB297D11082AFD1CEF29FD10082AFF03D7
:1003E0000319072A3E30FD00082A7D1FFC298613C9
:1003F000831686138301042A8316861783017D18CA
:10040000042A861B042A3F14FD03FD1B082AFD0154
:100410008C1E172A9818212AF7016C0884001A08E4
:100420008000EC0A6C306C0643300319EC008C1829
:100430000B280A1572088400710E8300F00E700EEE
:1004400009001A0818121816172A7A18502A091DB6
:10045000392A891C392AFE1FFE0A8C1A0A2A8C188E
:100460000B280A1572088400710E8300F00E700EBE
:100470000900FE080319082AFE017F0CC000C00C09
:10048000C00C07304005483E840083177F080739B9
:1004900003198001F220891C80048313FF0A082AB3
:1004A000091C622A861D622AEF1FEF0A8C1A0A2A8B
:1004B0008C180B280A1572088400710E8300F00E48
:1004C000700E0900EF080319082AEF013F0CC00065
:1004D000C00CC00C07304005403E840083173F0825
:1004E000073903198001F220861D80048313BF0A97
:1004F000082A203094008316403094008312A4010F
:10050000A501A6010800240893008316141C862A5E
:1005100083128C1107160712250E93008316141CE4
:100520008F2A83128C11071507118512A2018619D3
:10053000A217091822178918A216091922162208CB
:10054000A2007C060319A72A2208FC00A92A220877
:10055000A6007B18D42A1F19CF2A18301F050310B4
:100560008400840C840C20308407831783161E08B3
:1005700083128000840A1E0880008313831686304D
:100580009F00831205080F392604A60083168230C7
:100590009F0083121F08083EDF399F007B14080864
:1005A0002606F039880608001F157B1027080F392A
:1005B0002604A600CF2A4330EC00ED008C128316EF
:1005C00018150430990018129817831298171816E6
:1005D0008316981683120800F70164000C1EED2A9A
:1005E0009900080010108E01C0308F00013090007B
:1005F00064006C086D06031D012B0C1CF82A0C10FE
:10060000E02B6D0884006B3004064330031D040AA0
:10061000ED000008080064006C086D060800830106
:10062000303085000130860040308700FE30880081
:100630000030890081309F0083166400CF30810034
:1006400082309F00CF308500FC30860080308700EC
:1006500000308800073089008130990026309800EA
:10066000830103173F308D0003131D26013E03193C
:10067000482BFF3E031D482B831686118612091056
:100680008910091183018615861609148914091524
:10069000031701308D0003131D26F300FC390830C9
:1006A0000319F3001D26F4001D26F500FC3908305F
:1006B0000319F5001D26F60083160E088312023971
:1006C000031D832B83168E1483120130A200A10117
:1006D000A001871F0610871B0614061E0713061AA3
:1006E000071700000000A00B692BA10B692B640009
:1006F0000314881F7D2B880D692B0310880D061F9E
:10070000822DA20B692BFE308800FD01A030B000C5
:10071000B100B630B300B2007308AC00AD01AE0159
:100720000130AB008610C830BB00BC00DE30BE001C
:10073000BD00750AB700B801B9010130B600033039
:10074000FA00920191018D104030831692008C14B2
:1007500083121215DB22FB017B14792203178D0112
:1007600003131D26A400031705308D0003131D2657
:10077000EE00EE090130EE05F030A800832283225E
:100780002608FF3AA7008230A000A101A10BC62BCA
:10079000A00BC52B0B178B17AD17B817FF018030B7
:0807A000FE00BF01EF00E02B99
:1007C000AD1BE725B81BC7256E18322CFF0803198F
:1007D0000C2CFE1F0C2C8C30EC22483084007F0C3B
:1007E000A200A20CA20C07302205A00007307F0552
:1007F000031DA00A200A0C1EFB2B99007F080C1E6B
:10080000FF2B9900831700080C1E042C9900840A02
:10081000A00B032C8313FF01BF080319322CEF1F19
:10082000322C8D30EC22403084003F0CA200A20C10
:10083000A20C07302205A00007303F05031DA00AC7
:10084000200A0C1E212C99003F080C1E252C990013
:10085000831700080C1E2A2C9900840AA00B292C4F
:100860008313BF01330832060319502C8430EC2265
:100870003308320203183E2C003C123CA0000C1E30
:100880003F2C99003308840000080C1E452C990069
:10089000C7300406B630031D040AB300A00B432C76
:1008A0003E083D0603196E2C8530EC223E083D02C1
:1008B00003185C2C003C123CA0000C1E5D2C99001F
:1008C0003E08840000080C1E632C9900EF300406DB
:1008D000DE30031D040ABE00A00B612C8322270812
:1008E0002606031D752CA80B832C8730EC220130C3
:1008F0000C1E782C990026080C1E7C2C99002608CA
:10090000A700F030A80004308A0010108E01F030EB
:100910008F00013090006D086C020318912C003C90
:10092000293CA200FE3E031CA02C6D0A84006C3AF8
:100930004330031984000008023EA2020318AD2CC4
:100940006D0884006C060319A82C80080319F22294
:100950000C1C8B2C0C101010E02B10100C10F22221
:10096000C100C1080319E02B163C031CE02BF22246
:10097000C200410882072F2D392DA22D8B2D6E2DFF
:10098000482D5B2D072ED32CB02D062D0D2D1B2DA4
:10099000202DFB2C0F2B2A2D252D262E582E5B2E9D
:1009A000672E5F2EE02B4210C208031DD92C832234
:1009B000E02B8030C100F2228207C10CC10CC10CB7
:1009C000C10CC10CC10CC10CEA2CF222013A031972
:1009D000F72CF92CF222013A0319F42C4108FF3AC2
:1009E000A505C203C203D42C4108A504F12C86142A
:1009F000F12C8610F12C8B30EC2201300C1EFE2CD9
:100A00009900F2220C1E022D9900E02BEE0803192A
:100A1000122D79260319122DE02BEE080319122D41
:100A20003F1D192D8930EC2200300C1E152D990028
:100A3000E02B8526E02BEE080319E02B3427E02B72
:100A4000EE080319E02B4A27E02BEE080319E02BF0
:100A5000BC27E02BEE080319E02BE227E02BC208AD
:100A6000031DE02B8030EC2200300C1E352D990048
:100A7000E02B8130EC220530EC223130EC222E309C
:100A8000EC223730EC223630EC220030EC22E02B26
:100A9000AD17C2080319E02B0123A200310884001E
:100AA00022088000B5300406A030031D040AB100FE
:100AB000C20B4C2DE02BB817C2080319E02B012301
:100AC000A2003C08840022088000DD300406C83003
:100AD000031D040ABC00C20B5F2DE02B0430C206CC
:100AE000031D872DF222313A031D872DF2222E3A63
:100AF000031D872DF222373A031D872DF222363A45
:100B0000031D872D8B0164001E308A00602E433048
:100B1000EC00ED00E02B02304206031D072EF2220E
:100B200003178D000313F222A0008230EC2220086C
:100B30000C1E982D99001D260C1E9C2D9900A00BB3
:100B40009B2DE02BF22203178D0003134203A0001C
:100B5000F22203178C0003130826A00BA82DE02B0C
:100B6000F222033903108400840D2030840788307A
:100B7000EC2202300C1EBA2D990083170008831353
:100B8000EC22840A831700088313EC22E02B3B0835
:100B90003C020318CD2D003C163C153C063C0318C6
:100BA00008008330EC2202300C1ED42D9900013055
:100BB0000C1ED82D99003B083C020318E12D003C87
:100BC000163C153C0C1EE22D9900B81308003008A5
:100BD00031020318ED2D003C163C153C063C031871
:100BE00008008330EC2202300C1EF42D99000030F6
:100BF0000C1EF82D9900300831020318012E003C1C
:100C0000163C153C0C1E022E9900AD130800E02B7B
:100C10000B08A200031783168C130C158B13553089
:100C20008D00AA308D008C148C18142E0C11831298
:100C30008D0A830122088B000800031783168C138A
:100C40000C1483120C088D0A830108008B13831285
:100C500098138316981283126400061E3C2E871B7D
:100C60002C2E0610A001061E432E871B3A2EA00B29
:100C7000332E4D2E06142C2E0713871F432E061ECF
:100C80003D2E07172C2E06100713871B4B2E061E12
:100C9000452E0717322E06143D2E0614871F4D2EA3
:100CA0008312981718168316981683128B17E02B49
:100CB000F222EE00E02B8E27FF30FD00E02B8E2786
:100CC000F222FE000830FF005E30FD00E02B8E2790
:100CD0008F30EC220130EC22FE010830FF003E3064
:100CE000FD008E277E08EC22E02BFF30FD008E27D2
:100CF00008000830A0004830840083178001831367
:100D0000840AA00B7D2EBF01BF147526F030FE00B3
:100D10000830FF005E30FD008E274030A000A301A8
:100D2000FE010230FF003E30FD008E277E0C7E0665
:100D30004039031DF52E7E1B0800BF1CB12E200379
:100D40008400840C840C840C0730840548308407AC
:100D5000200307399B272208831780048313FE0191
:100D6000F52E20038400840C840C840C0730840549
:100D7000483084072003073993272208831700058A
:100D80008313031DE22E0408483A0319CE2E840370
:100D9000831780088313031DE22EC32EBF14200384
:100DA0008400840C840C840C07308405483084074C
:100DB000200307399B272209831780058313FF30FF
:100DC000FE00F52EFE0120038400840C840C840CAC
:100DD0000730840540308407200307399B27220809
:100DE000831700058313031DFE097E1B7E14031069
:100DF000A30C7E18A3170130FF005E30FD008E2784
:100E000020030739031D122F20038400840C840C57
:100E1000840C073084054030840723088317800042
:100E20008313A301A00B902EBF108930EC22083051
:100E3000EC220830A0004030840020038407831790
:100E400000088313EC22A00B1B2F0830A0004830B1
:100E50008400831780088313031D0800840AA00BF5
:100E6000292F03153F1508006F2775265530FE0002
:100E70000830FF005E30FD008E277D274430FE00E5
:100E80000830FF005E30FD008E278617831686131C
:100E9000830108006F278316861783017526553056
:100EA000FE000830FF005E30FD008E277D27BE303B
:100EB000FE000830FF005E30FD008E278A30EC22F5
:100EC0000930EC220930A000FE010830FF003E305E
:100ED000FD008E277E08EC22A00B642F080047300F
:100EE000A200F222A30022088400230883178000B6
:100EF0008313A203C20B712F08004730840008300F
:100F0000A000831700088313FE000830FF005E3046
:100F1000FD0084038E27A00B812F08006400FD08CC
:100F2000031D8E2F0800A201FF39031908000314C6
:100F3000A20CFF3E942FA201A217FF39031908004B
:100F40000310A20CFF3E9D2F0F39A2003030A207E4
:100F50003A30220207300318A20731083006031D79
:100F6000AD2F3108840022088000B5300406A0307F
:100F7000031D040AB10008006F278316861783013A
:100F800075265530FE000830FF005E30FD008E27CC
:100F90007D276630FE000830FF005E30FD008E27A2
:100FA0008E30EC220530EC220530A000FE01083026
:100FB000FF003E30FD008E277E08EC22A00BD62FCE
:100FC000752608000830C2006F2783168617830134
:100FD00075265530FE000830FF005E30FD008E277C
:100FE0007D279930FE000830FF005E30FD008E271F
:100FF00064000530A000F222FE000830FF005E30E1
:10100000FD008E27A00BFB2F75260800A200220EE4
:101010000F39A3003030A3073A30230207300318FA
:10102000A3072308EC2222080F39A3003030A307BE
:101030003A30230207300318A3072308EC220800E4
:02400E00763FFB
:00000001FF
